{
  "contractName": "ClaimYourMoney",
  "abi": [
    {
      "constant": true,
      "inputs": [
        {
          "name": "",
          "type": "address"
        }
      ],
      "name": "data",
      "outputs": [
        {
          "name": "addr",
          "type": "address"
        },
        {
          "name": "amount",
          "type": "uint256"
        },
        {
          "name": "enMsg",
          "type": "string"
        }
      ],
      "payable": false,
      "stateMutability": "view",
      "type": "function"
    },
    {
      "anonymous": false,
      "inputs": [
        {
          "indexed": true,
          "name": "_from",
          "type": "address"
        },
        {
          "indexed": true,
          "name": "_to",
          "type": "address"
        },
        {
          "indexed": false,
          "name": "_value",
          "type": "uint256"
        },
        {
          "indexed": false,
          "name": "_enMsg",
          "type": "string"
        }
      ],
      "name": "Transfer",
      "type": "event"
    },
    {
      "anonymous": false,
      "inputs": [
        {
          "indexed": true,
          "name": "_from",
          "type": "address"
        },
        {
          "indexed": true,
          "name": "_to",
          "type": "address"
        },
        {
          "indexed": false,
          "name": "_value",
          "type": "uint256"
        },
        {
          "indexed": false,
          "name": "_enMsg",
          "type": "string"
        }
      ],
      "name": "Claim",
      "type": "event"
    },
    {
      "constant": false,
      "inputs": [
        {
          "name": "receiver",
          "type": "address"
        },
        {
          "name": "amount",
          "type": "uint256"
        }
      ],
      "name": "sendMoney",
      "outputs": [
        {
          "name": "",
          "type": "uint256"
        }
      ],
      "payable": false,
      "stateMutability": "nonpayable",
      "type": "function"
    },
    {
      "constant": false,
      "inputs": [
        {
          "name": "receiver",
          "type": "address"
        },
        {
          "name": "amount",
          "type": "uint256"
        }
      ],
      "name": "claimMyMoney",
      "outputs": [
        {
          "name": "",
          "type": "bool"
        }
      ],
      "payable": false,
      "stateMutability": "nonpayable",
      "type": "function"
    }
  ],
  "bytecode": "0x608060405234801561001057600080fd5b506107d3806100206000396000f300608060405260043610610057576000357c0100000000000000000000000000000000000000000000000000000000900463ffffffff168063381023b41461005c578063b90d3d0c146100c1578063ee4ae2c9146101b7575b600080fd5b34801561006857600080fd5b506100a7600480360381019080803573ffffffffffffffffffffffffffffffffffffffff16906020019092919080359060200190929190505050610218565b604051808215151515815260200191505060405180910390f35b3480156100cd57600080fd5b50610102600480360381019080803573ffffffffffffffffffffffffffffffffffffffff1690602001909291905050506104da565b604051808473ffffffffffffffffffffffffffffffffffffffff1673ffffffffffffffffffffffffffffffffffffffff16815260200183815260200180602001828103825283818151815260200191508051906020019080838360005b8381101561017a57808201518184015260208101905061015f565b50505050905090810190601f1680156101a75780820380516001836020036101000a031916815260200191505b5094505050505060405180910390f35b3480156101c357600080fd5b50610202600480360381019080803573ffffffffffffffffffffffffffffffffffffffff169060200190929190803590602001909291905050506105bc565b6040518082815260200191505060405180910390f35b6000806000600160003373ffffffffffffffffffffffffffffffffffffffff1673ffffffffffffffffffffffffffffffffffffffff1681526020019081526020016000206002019150600160008673ffffffffffffffffffffffffffffffffffffffff1673ffffffffffffffffffffffffffffffffffffffff16815260200190815260200160002060020190508060405180828054600181600116156101000203166002900480156103015780601f106102df576101008083540402835291820191610301565b820191906000526020600020905b8154815290600101906020018083116102ed575b505091505060405180910390206000191682604051808280546001816001161561010002031660029004801561036e5780601f1061034c57610100808354040283529182019161036e565b820191906000526020600020905b81548152906001019060200180831161035a575b5050915050604051809103902060001916141561047d573373ffffffffffffffffffffffffffffffffffffffff168573ffffffffffffffffffffffffffffffffffffffff167fba31f31c00b12b82ce9e90bb46c65fc25833c83855f027f43004485ab98b0594868560405180838152602001806020018281038252838181546001816001161561010002031660029004815260200191508054600181600116156101000203166002900480156104655780601f1061043a57610100808354040283529160200191610465565b820191906000526020600020905b81548152906001019060200180831161044857829003601f168201915b5050935050505060405180910390a3600192506104d2565b83600160003373ffffffffffffffffffffffffffffffffffffffff1673ffffffffffffffffffffffffffffffffffffffff16815260200190815260200160002060010160008282540192505081905550600092505b505092915050565b60016020528060005260406000206000915090508060000160009054906101000a900473ffffffffffffffffffffffffffffffffffffffff1690806001015490806002018054600181600116156101000203166002900480601f0160208091040260200160405190810160405280929190818152602001828054600181600116156101000203166002900480156105b25780601f10610587576101008083540402835291602001916105b2565b820191906000526020600020905b81548152906001019060200180831161059557829003601f168201915b5050505050905083565b600081600160003373ffffffffffffffffffffffffffffffffffffffff1673ffffffffffffffffffffffffffffffffffffffff168152602001908152602001600020600101600082825403925050819055506106188383610218565b1561079e5781600160008573ffffffffffffffffffffffffffffffffffffffff1673ffffffffffffffffffffffffffffffffffffffff168152602001908152602001600020600101600082825401925050819055508273ffffffffffffffffffffffffffffffffffffffff163373ffffffffffffffffffffffffffffffffffffffff167fcd6e659e4c2e75c3bfe47fecaccf39aeb368116a0ee52afb532e07f6cba6c0d184600160003373ffffffffffffffffffffffffffffffffffffffff1673ffffffffffffffffffffffffffffffffffffffff168152602001908152602001600020600201604051808381526020018060200182810382528381815460018160011615610100020316600290048152602001915080546001816001161561010002031660029004801561078e5780601f106107635761010080835404028352916020019161078e565b820191906000526020600020905b81548152906001019060200180831161077157829003601f168201915b5050935050505060405180910390a35b819050929150505600a165627a7a723058200059f6afe6427191e194e52279dff8e084f22cea286cb2ccdc9ddee85bc787cf0029",
  "source": "pragma solidity ^0.4.18;\r\n\r\ncontract ClaimYourMoney{\r\n\r\n  string enMsg;\r\n\r\n  struct Sender {\r\n     address addr;\r\n     uint256 amount;\r\n     string enMsg;\r\n  }\r\n\r\n  mapping (address => Sender ) public data;\r\n\r\n  event Transfer(address indexed _from, address indexed _to, uint256 _value,\r\n     string _enMsg);\r\n\r\n  event Claim(address indexed _from, address indexed _to, uint256 _value,\r\n        string _enMsg);\r\n\r\n\r\n  function sendMoney(address receiver, uint amount) public returns(uint){\r\n    data[msg.sender].amount -= amount;\r\n    if(claimMyMoney(receiver, amount)){\r\n      data[receiver].amount += amount;\r\n      emit Transfer(msg.sender, receiver, amount, data[msg.sender].enMsg);\r\n    }\r\n    return amount;\r\n  }\r\n\r\n  function claimMyMoney(address receiver, uint amount ) public returns(bool){\r\n    string storage msgSender = data[msg.sender].enMsg;\r\n    string storage msgReceiver = data[receiver].enMsg;\r\n    if(sha3(msgSender) == sha3(msgReceiver)){\r\n        emit Claim(receiver, msg.sender, amount, msgSender);\r\n        return true;\r\n      } else{\r\n          data[msg.sender].amount += amount;\r\n          return false;\r\n      }\r\n\r\n  }\r\n\r\n\r\n\r\n\r\n}\r\n",
  "sourcePath": "C:\\Users\\vinic\\Desktop\\projects\\Blockchain\\ClaimYourMoney\\contracts\\ClaimYourMoney.sol",
  "compiler": {
    "name": "solc",
    "version": "0.4.24+commit.e67f0147.Emscripten.clang"
  },
  "schemaVersion": "2.0.0",
  "updatedAt": "2018-05-29T22:27:34.758Z"
}